{
  "contractName": "Convergent_Billboard",
  "abi": [
    {
      "constant": true,
      "inputs": [],
      "name": "name",
      "outputs": [
        {
          "name": "",
          "type": "string"
        }
      ],
      "payable": false,
      "stateMutability": "view",
      "type": "function",
      "signature": "0x06fdde03"
    },
    {
      "constant": false,
      "inputs": [
        {
          "name": "spender",
          "type": "address"
        },
        {
          "name": "value",
          "type": "uint256"
        }
      ],
      "name": "approve",
      "outputs": [
        {
          "name": "",
          "type": "bool"
        }
      ],
      "payable": false,
      "stateMutability": "nonpayable",
      "type": "function",
      "signature": "0x095ea7b3"
    },
    {
      "constant": true,
      "inputs": [],
      "name": "requiredAmt",
      "outputs": [
        {
          "name": "",
          "type": "uint256"
        }
      ],
      "payable": false,
      "stateMutability": "view",
      "type": "function",
      "signature": "0x0fb22620"
    },
    {
      "constant": true,
      "inputs": [],
      "name": "totalSupply",
      "outputs": [
        {
          "name": "",
          "type": "uint256"
        }
      ],
      "payable": false,
      "stateMutability": "view",
      "type": "function",
      "signature": "0x18160ddd"
    },
    {
      "constant": true,
      "inputs": [],
      "name": "safe",
      "outputs": [
        {
          "name": "",
          "type": "address"
        }
      ],
      "payable": false,
      "stateMutability": "view",
      "type": "function",
      "signature": "0x186f0354"
    },
    {
      "constant": false,
      "inputs": [
        {
          "name": "from",
          "type": "address"
        },
        {
          "name": "to",
          "type": "address"
        },
        {
          "name": "value",
          "type": "uint256"
        }
      ],
      "name": "transferFrom",
      "outputs": [
        {
          "name": "",
          "type": "bool"
        }
      ],
      "payable": false,
      "stateMutability": "nonpayable",
      "type": "function",
      "signature": "0x23b872dd"
    },
    {
      "constant": true,
      "inputs": [],
      "name": "decimals",
      "outputs": [
        {
          "name": "",
          "type": "uint8"
        }
      ],
      "payable": false,
      "stateMutability": "view",
      "type": "function",
      "signature": "0x313ce567"
    },
    {
      "constant": false,
      "inputs": [
        {
          "name": "spender",
          "type": "address"
        },
        {
          "name": "addedValue",
          "type": "uint256"
        }
      ],
      "name": "increaseAllowance",
      "outputs": [
        {
          "name": "",
          "type": "bool"
        }
      ],
      "payable": false,
      "stateMutability": "nonpayable",
      "type": "function",
      "signature": "0x39509351"
    },
    {
      "constant": false,
      "inputs": [
        {
          "name": "numTokens",
          "type": "uint256"
        }
      ],
      "name": "burn",
      "outputs": [],
      "payable": false,
      "stateMutability": "nonpayable",
      "type": "function",
      "signature": "0x42966c68"
    },
    {
      "constant": true,
      "inputs": [],
      "name": "exponent",
      "outputs": [
        {
          "name": "",
          "type": "uint256"
        }
      ],
      "payable": false,
      "stateMutability": "view",
      "type": "function",
      "signature": "0x52f6ee58"
    },
    {
      "constant": true,
      "inputs": [],
      "name": "cashed",
      "outputs": [
        {
          "name": "",
          "type": "uint256"
        }
      ],
      "payable": false,
      "stateMutability": "view",
      "type": "function",
      "signature": "0x5cb27801"
    },
    {
      "constant": true,
      "inputs": [],
      "name": "inverseSlope",
      "outputs": [
        {
          "name": "",
          "type": "uint256"
        }
      ],
      "payable": false,
      "stateMutability": "view",
      "type": "function",
      "signature": "0x6400be1d"
    },
    {
      "constant": true,
      "inputs": [
        {
          "name": "owner",
          "type": "address"
        }
      ],
      "name": "balanceOf",
      "outputs": [
        {
          "name": "",
          "type": "uint256"
        }
      ],
      "payable": false,
      "stateMutability": "view",
      "type": "function",
      "signature": "0x70a08231"
    },
    {
      "constant": true,
      "inputs": [],
      "name": "symbol",
      "outputs": [
        {
          "name": "",
          "type": "string"
        }
      ],
      "payable": false,
      "stateMutability": "view",
      "type": "function",
      "signature": "0x95d89b41"
    },
    {
      "constant": true,
      "inputs": [],
      "name": "poolBalance",
      "outputs": [
        {
          "name": "",
          "type": "uint256"
        }
      ],
      "payable": false,
      "stateMutability": "view",
      "type": "function",
      "signature": "0x96365d44"
    },
    {
      "constant": false,
      "inputs": [
        {
          "name": "spender",
          "type": "address"
        },
        {
          "name": "subtractedValue",
          "type": "uint256"
        }
      ],
      "name": "decreaseAllowance",
      "outputs": [
        {
          "name": "",
          "type": "bool"
        }
      ],
      "payable": false,
      "stateMutability": "nonpayable",
      "type": "function",
      "signature": "0xa457c2d7"
    },
    {
      "constant": false,
      "inputs": [
        {
          "name": "to",
          "type": "address"
        },
        {
          "name": "value",
          "type": "uint256"
        }
      ],
      "name": "transfer",
      "outputs": [
        {
          "name": "",
          "type": "bool"
        }
      ],
      "payable": false,
      "stateMutability": "nonpayable",
      "type": "function",
      "signature": "0xa9059cbb"
    },
    {
      "constant": true,
      "inputs": [
        {
          "name": "numTokens",
          "type": "uint256"
        }
      ],
      "name": "priceToMint",
      "outputs": [
        {
          "name": "",
          "type": "uint256"
        }
      ],
      "payable": false,
      "stateMutability": "view",
      "type": "function",
      "signature": "0xb9d36743"
    },
    {
      "constant": true,
      "inputs": [
        {
          "name": "numTokens",
          "type": "uint256"
        }
      ],
      "name": "rewardForBurn",
      "outputs": [
        {
          "name": "",
          "type": "uint256"
        }
      ],
      "payable": false,
      "stateMutability": "view",
      "type": "function",
      "signature": "0xc544682b"
    },
    {
      "constant": true,
      "inputs": [
        {
          "name": "owner",
          "type": "address"
        },
        {
          "name": "spender",
          "type": "address"
        }
      ],
      "name": "allowance",
      "outputs": [
        {
          "name": "",
          "type": "uint256"
        }
      ],
      "payable": false,
      "stateMutability": "view",
      "type": "function",
      "signature": "0xdd62ed3e"
    },
    {
      "constant": true,
      "inputs": [],
      "name": "maxTokens",
      "outputs": [
        {
          "name": "",
          "type": "uint256"
        }
      ],
      "payable": false,
      "stateMutability": "view",
      "type": "function",
      "signature": "0xe8315742"
    },
    {
      "inputs": [
        {
          "name": "_maxTokens",
          "type": "uint256"
        },
        {
          "name": "_requiredAmt",
          "type": "uint256"
        },
        {
          "name": "_safe",
          "type": "address"
        }
      ],
      "payable": false,
      "stateMutability": "nonpayable",
      "type": "constructor",
      "signature": "constructor"
    },
    {
      "payable": false,
      "stateMutability": "nonpayable",
      "type": "fallback"
    },
    {
      "anonymous": false,
      "inputs": [
        {
          "indexed": false,
          "name": "what",
          "type": "bytes32"
        },
        {
          "indexed": true,
          "name": "when",
          "type": "uint256"
        }
      ],
      "name": "Advertisement",
      "type": "event",
      "signature": "0x20afb6b5480941b31017b07508c24c719ee2e80878477f377b62ba2922bd4266"
    },
    {
      "anonymous": false,
      "inputs": [
        {
          "indexed": false,
          "name": "amount",
          "type": "uint256"
        },
        {
          "indexed": false,
          "name": "totalCost",
          "type": "uint256"
        }
      ],
      "name": "Minted",
      "type": "event",
      "signature": "0x8a9dcf4e150b1153011b29fec302d5be0c13e84fa8f56ab78587f778a32a90dd"
    },
    {
      "anonymous": false,
      "inputs": [
        {
          "indexed": false,
          "name": "amount",
          "type": "uint256"
        },
        {
          "indexed": false,
          "name": "reward",
          "type": "uint256"
        }
      ],
      "name": "Burned",
      "type": "event",
      "signature": "0xcec1bae6e024d929f2929f3478ce70f55f9c636c8ef7b5073a61d7c3a432451b"
    },
    {
      "anonymous": false,
      "inputs": [
        {
          "indexed": true,
          "name": "from",
          "type": "address"
        },
        {
          "indexed": true,
          "name": "to",
          "type": "address"
        },
        {
          "indexed": false,
          "name": "value",
          "type": "uint256"
        }
      ],
      "name": "Transfer",
      "type": "event",
      "signature": "0xddf252ad1be2c89b69c2b068fc378daa952ba7f163c4a11628f55a4df523b3ef"
    },
    {
      "anonymous": false,
      "inputs": [
        {
          "indexed": true,
          "name": "owner",
          "type": "address"
        },
        {
          "indexed": true,
          "name": "spender",
          "type": "address"
        },
        {
          "indexed": false,
          "name": "value",
          "type": "uint256"
        }
      ],
      "name": "Approval",
      "type": "event",
      "signature": "0x8c5be1e5ebec7d5bd14f71427d1e84f3dd0314c0f7b2291e5b200ac8c7c3b925"
    },
    {
      "constant": false,
      "inputs": [
        {
          "name": "numTokens",
          "type": "uint256"
        }
      ],
      "name": "mint",
      "outputs": [],
      "payable": true,
      "stateMutability": "payable",
      "type": "function",
      "signature": "0xa0712d68"
    },
    {
      "constant": false,
      "inputs": [
        {
          "name": "_what",
          "type": "bytes32"
        }
      ],
      "name": "purchaseAdvertisement",
      "outputs": [],
      "payable": true,
      "stateMutability": "payable",
      "type": "function",
      "signature": "0xe927594f"
    },
    {
      "constant": false,
      "inputs": [
        {
          "name": "_what",
          "type": "bytes32"
        }
      ],
      "name": "submit",
      "outputs": [],
      "payable": false,
      "stateMutability": "nonpayable",
      "type": "function",
      "signature": "0xd9caa3d2"
    }
  ],
  "bytecode": "0x60806040523480156200001157600080fd5b50604051606080620020db8339810180604052810190808051906020019092919080519060200190929190805190602001909291905050506040805190810160405280601a81526020017f436f6e76657267656e742042696c6c626f61726420546f6b656e0000000000008152506040805190810160405280600381526020017f4342540000000000000000000000000000000000000000000000000000000000815250601260016103e88484848282828260009080519060200190620000da92919062000194565b508160019080519060200190620000f392919062000194565b5080600260006101000a81548160ff021916908360ff16021790555050505050505081600781905550806008819055505050505050670de0b6b3a76400008302600a81905550670de0b6b3a76400008202600b8190555080600c60006101000a81548173ffffffffffffffffffffffffffffffffffffffff021916908373ffffffffffffffffffffffffffffffffffffffff16021790555050505062000243565b828054600181600116156101000203166002900490600052602060002090601f016020900481019282601f10620001d757805160ff191683800117855562000208565b8280016001018555821562000208579182015b8281111562000207578251825591602001919060010190620001ea565b5b5090506200021791906200021b565b5090565b6200024091905b808211156200023c57600081600090555060010162000222565b5090565b90565b611e8880620002536000396000f30060806040526004361061013e576000357c0100000000000000000000000000000000000000000000000000000000900463ffffffff16806306fdde0314610150578063095ea7b3146101e05780630fb226201461024557806318160ddd14610270578063186f03541461029b57806323b872dd146102f2578063313ce5671461037757806339509351146103a857806342966c681461040d57806352f6ee581461043a5780635cb27801146104655780636400be1d1461049057806370a08231146104bb57806395d89b411461051257806396365d44146105a2578063a0712d68146105cd578063a457c2d7146105ed578063a9059cbb14610652578063b9d36743146106b7578063c544682b146106f8578063d9caa3d214610739578063dd62ed3e1461076a578063e8315742146107e1578063e927594f1461080c575b34801561014a57600080fd5b50600080fd5b34801561015c57600080fd5b50610165610830565b6040518080602001828103825283818151815260200191508051906020019080838360005b838110156101a557808201518184015260208101905061018a565b50505050905090810190601f1680156101d25780820380516001836020036101000a031916815260200191505b509250505060405180910390f35b3480156101ec57600080fd5b5061022b600480360381019080803573ffffffffffffffffffffffffffffffffffffffff169060200190929190803590602001909291905050506108d2565b604051808215151515815260200191505060405180910390f35b34801561025157600080fd5b5061025a6109ff565b6040518082815260200191505060405180910390f35b34801561027c57600080fd5b50610285610a05565b6040518082815260200191505060405180910390f35b3480156102a757600080fd5b506102b0610a0f565b604051808273ffffffffffffffffffffffffffffffffffffffff1673ffffffffffffffffffffffffffffffffffffffff16815260200191505060405180910390f35b3480156102fe57600080fd5b5061035d600480360381019080803573ffffffffffffffffffffffffffffffffffffffff169060200190929190803573ffffffffffffffffffffffffffffffffffffffff16906020019092919080359060200190929190505050610a35565b604051808215151515815260200191505060405180910390f35b34801561038357600080fd5b5061038c610be7565b604051808260ff1660ff16815260200191505060405180910390f35b3480156103b457600080fd5b506103f3600480360381019080803573ffffffffffffffffffffffffffffffffffffffff16906020019092919080359060200190929190505050610bfe565b604051808215151515815260200191505060405180910390f35b34801561041957600080fd5b5061043860048036038101908080359060200190929190505050610e35565b005b34801561044657600080fd5b5061044f61100e565b6040518082815260200191505060405180910390f35b34801561047157600080fd5b5061047a611014565b6040518082815260200191505060405180910390f35b34801561049c57600080fd5b506104a561101a565b6040518082815260200191505060405180910390f35b3480156104c757600080fd5b506104fc600480360381019080803573ffffffffffffffffffffffffffffffffffffffff169060200190929190505050611020565b6040518082815260200191505060405180910390f35b34801561051e57600080fd5b50610527611069565b6040518080602001828103825283818151815260200191508051906020019080838360005b8381101561056757808201518184015260208101905061054c565b50505050905090810190601f1680156105945780820380516001836020036101000a031916815260200191505b509250505060405180910390f35b3480156105ae57600080fd5b506105b761110b565b6040518082815260200191505060405180910390f35b6105eb60048036038101908080359060200190929190505050611111565b005b3480156105f957600080fd5b50610638600480360381019080803573ffffffffffffffffffffffffffffffffffffffff16906020019092919080359060200190929190505050611170565b604051808215151515815260200191505060405180910390f35b34801561065e57600080fd5b5061069d600480360381019080803573ffffffffffffffffffffffffffffffffffffffff169060200190929190803590602001909291905050506113a7565b604051808215151515815260200191505060405180910390f35b3480156106c357600080fd5b506106e2600480360381019080803590602001909291905050506113be565b6040518082815260200191505060405180910390f35b34801561070457600080fd5b50610723600480360381019080803590602001909291905050506113fd565b6040518082815260200191505060405180910390f35b34801561074557600080fd5b50610768600480360381019080803560001916906020019092919050505061143c565b005b34801561077657600080fd5b506107cb600480360381019080803573ffffffffffffffffffffffffffffffffffffffff169060200190929190803573ffffffffffffffffffffffffffffffffffffffff169060200190929190505050611592565b6040518082815260200191505060405180910390f35b3480156107ed57600080fd5b506107f6611619565b6040518082815260200191505060405180910390f35b61082e600480360381019080803560001916906020019092919050505061161f565b005b606060008054600181600116156101000203166002900480601f0160208091040260200160405190810160405280929190818152602001828054600181600116156101000203166002900480156108c85780601f1061089d576101008083540402835291602001916108c8565b820191906000526020600020905b8154815290600101906020018083116108ab57829003601f168201915b5050505050905090565b60008073ffffffffffffffffffffffffffffffffffffffff168373ffffffffffffffffffffffffffffffffffffffff161415151561090f57600080fd5b81600460003373ffffffffffffffffffffffffffffffffffffffff1673ffffffffffffffffffffffffffffffffffffffff16815260200190815260200160002060008573ffffffffffffffffffffffffffffffffffffffff1673ffffffffffffffffffffffffffffffffffffffff168152602001908152602001600020819055508273ffffffffffffffffffffffffffffffffffffffff163373ffffffffffffffffffffffffffffffffffffffff167f8c5be1e5ebec7d5bd14f71427d1e84f3dd0314c0f7b2291e5b200ac8c7c3b925846040518082815260200191505060405180910390a36001905092915050565b600b5481565b6000600554905090565b600c60009054906101000a900473ffffffffffffffffffffffffffffffffffffffff1681565b6000600460008573ffffffffffffffffffffffffffffffffffffffff1673ffffffffffffffffffffffffffffffffffffffff16815260200190815260200160002060003373ffffffffffffffffffffffffffffffffffffffff1673ffffffffffffffffffffffffffffffffffffffff168152602001908152602001600020548211151515610ac257600080fd5b610b5182600460008773ffffffffffffffffffffffffffffffffffffffff1673ffffffffffffffffffffffffffffffffffffffff16815260200190815260200160002060003373ffffffffffffffffffffffffffffffffffffffff1673ffffffffffffffffffffffffffffffffffffffff1681526020019081526020016000205461163690919063ffffffff16565b600460008673ffffffffffffffffffffffffffffffffffffffff1673ffffffffffffffffffffffffffffffffffffffff16815260200190815260200160002060003373ffffffffffffffffffffffffffffffffffffffff1673ffffffffffffffffffffffffffffffffffffffff16815260200190815260200160002081905550610bdc848484611657565b600190509392505050565b6000600260009054906101000a900460ff16905090565b60008073ffffffffffffffffffffffffffffffffffffffff168373ffffffffffffffffffffffffffffffffffffffff1614151515610c3b57600080fd5b610cca82600460003373ffffffffffffffffffffffffffffffffffffffff1673ffffffffffffffffffffffffffffffffffffffff16815260200190815260200160002060008673ffffffffffffffffffffffffffffffffffffffff1673ffffffffffffffffffffffffffffffffffffffff1681526020019081526020016000205461187590919063ffffffff16565b600460003373ffffffffffffffffffffffffffffffffffffffff1673ffffffffffffffffffffffffffffffffffffffff16815260200190815260200160002060008573ffffffffffffffffffffffffffffffffffffffff1673ffffffffffffffffffffffffffffffffffffffff168152602001908152602001600020819055508273ffffffffffffffffffffffffffffffffffffffff163373ffffffffffffffffffffffffffffffffffffffff167f8c5be1e5ebec7d5bd14f71427d1e84f3dd0314c0f7b2291e5b200ac8c7c3b925600460003373ffffffffffffffffffffffffffffffffffffffff1673ffffffffffffffffffffffffffffffffffffffff16815260200190815260200160002060008773ffffffffffffffffffffffffffffffffffffffff1673ffffffffffffffffffffffffffffffffffffffff168152602001908152602001600020546040518082815260200191505060405180910390a36001905092915050565b60008082111515610ed4576040517f08c379a00000000000000000000000000000000000000000000000000000000081526004018080602001828103825260268152602001807f4d757374206275726e20616e20616d6f756e742067726561746572207468616e81526020017f207a65726f2e000000000000000000000000000000000000000000000000000081525060400191505060405180910390fd5b81610ede33611020565b10151515610f54576040517f08c379a00000000000000000000000000000000000000000000000000000000081526004018080602001828103825260208152602001807f4d757374206861766520656e6f75676820746f6b656e7320746f206275726e2e81525060200191505060405180910390fd5b610f5d826113fd565b9050610f693383611896565b610f7e8160065461163690919063ffffffff16565b6006819055503373ffffffffffffffffffffffffffffffffffffffff166108fc829081150290604051600060405180830381858888f19350505050158015610fca573d6000803e3d6000fd5b507fcec1bae6e024d929f2929f3478ce70f55f9c636c8ef7b5073a61d7c3a432451b8282604051808381526020018281526020019250505060405180910390a15050565b60075481565b60095481565b60085481565b6000600360008373ffffffffffffffffffffffffffffffffffffffff1673ffffffffffffffffffffffffffffffffffffffff168152602001908152602001600020549050919050565b606060018054600181600116156101000203166002900480601f0160208091040260200160405190810160405280929190818152602001828054600181600116156101000203166002900480156111015780601f106110d657610100808354040283529160200191611101565b820191906000526020600020905b8154815290600101906020018083116110e457829003601f168201915b5050505050905090565b60065481565b600061112d8261111f610a05565b61187590919063ffffffff16565b9050600a548111156111625761115d611158611147610a05565b600a5461163690919063ffffffff16565b611a24565b61116c565b61116b82611a24565b5b5050565b60008073ffffffffffffffffffffffffffffffffffffffff168373ffffffffffffffffffffffffffffffffffffffff16141515156111ad57600080fd5b61123c82600460003373ffffffffffffffffffffffffffffffffffffffff1673ffffffffffffffffffffffffffffffffffffffff16815260200190815260200160002060008673ffffffffffffffffffffffffffffffffffffffff1673ffffffffffffffffffffffffffffffffffffffff1681526020019081526020016000205461163690919063ffffffff16565b600460003373ffffffffffffffffffffffffffffffffffffffff1673ffffffffffffffffffffffffffffffffffffffff16815260200190815260200160002060008573ffffffffffffffffffffffffffffffffffffffff1673ffffffffffffffffffffffffffffffffffffffff168152602001908152602001600020819055508273ffffffffffffffffffffffffffffffffffffffff163373ffffffffffffffffffffffffffffffffffffffff167f8c5be1e5ebec7d5bd14f71427d1e84f3dd0314c0f7b2291e5b200ac8c7c3b925600460003373ffffffffffffffffffffffffffffffffffffffff1673ffffffffffffffffffffffffffffffffffffffff16815260200190815260200160002060008773ffffffffffffffffffffffffffffffffffffffff1673ffffffffffffffffffffffffffffffffffffffff168152602001908152602001600020546040518082815260200191505060405180910390a36001905092915050565b60006113b4338484611657565b6001905092915050565b60006113f66006546113e86113e3856113d5610a05565b61187590919063ffffffff16565b611c36565b61163690919063ffffffff16565b9050919050565b600061143561142461141f84611411610a05565b61163690919063ffffffff16565b611c36565b60065461163690919063ffffffff16565b9050919050565b600080600080600b5461144e33611020565b1015151561145b57600080fd5b60096000815480929190600101919050555061147c33611337600b54611657565b611484610be7565b60ff16600a0a93506114a96114a485600954611cb490919063ffffffff16565b611c36565b92506114cb6114c685600160095403611cb490919063ffffffff16565b611c36565b91506114e0828461163690919063ffffffff16565b9050600c60009054906101000a900473ffffffffffffffffffffffffffffffffffffffff1673ffffffffffffffffffffffffffffffffffffffff166108fc829081150290604051600060405180830381858888f1935050505015801561154a573d6000803e3d6000fd5b50427f20afb6b5480941b31017b07508c24c719ee2e80878477f377b62ba2922bd42668660405180826000191660001916815260200191505060405180910390a25050505050565b6000600460008473ffffffffffffffffffffffffffffffffffffffff1673ffffffffffffffffffffffffffffffffffffffff16815260200190815260200160002060008373ffffffffffffffffffffffffffffffffffffffff1673ffffffffffffffffffffffffffffffffffffffff16815260200190815260200160002054905092915050565b600a5481565b61162a600b54611111565b6116338161143c565b50565b60008083831115151561164857600080fd5b82840390508091505092915050565b600360008473ffffffffffffffffffffffffffffffffffffffff1673ffffffffffffffffffffffffffffffffffffffff1681526020019081526020016000205481111515156116a557600080fd5b600073ffffffffffffffffffffffffffffffffffffffff168273ffffffffffffffffffffffffffffffffffffffff16141515156116e157600080fd5b61173381600360008673ffffffffffffffffffffffffffffffffffffffff1673ffffffffffffffffffffffffffffffffffffffff1681526020019081526020016000205461163690919063ffffffff16565b600360008573ffffffffffffffffffffffffffffffffffffffff1673ffffffffffffffffffffffffffffffffffffffff168152602001908152602001600020819055506117c881600360008573ffffffffffffffffffffffffffffffffffffffff1673ffffffffffffffffffffffffffffffffffffffff1681526020019081526020016000205461187590919063ffffffff16565b600360008473ffffffffffffffffffffffffffffffffffffffff1673ffffffffffffffffffffffffffffffffffffffff168152602001908152602001600020819055508173ffffffffffffffffffffffffffffffffffffffff168373ffffffffffffffffffffffffffffffffffffffff167fddf252ad1be2c89b69c2b068fc378daa952ba7f163c4a11628f55a4df523b3ef836040518082815260200191505060405180910390a3505050565b600080828401905083811015151561188c57600080fd5b8091505092915050565b60008273ffffffffffffffffffffffffffffffffffffffff16141515156118bc57600080fd5b600360008373ffffffffffffffffffffffffffffffffffffffff1673ffffffffffffffffffffffffffffffffffffffff16815260200190815260200160002054811115151561190a57600080fd5b61191f8160055461163690919063ffffffff16565b60058190555061197781600360008573ffffffffffffffffffffffffffffffffffffffff1673ffffffffffffffffffffffffffffffffffffffff1681526020019081526020016000205461163690919063ffffffff16565b600360008473ffffffffffffffffffffffffffffffffffffffff1673ffffffffffffffffffffffffffffffffffffffff16815260200190815260200160002081905550600073ffffffffffffffffffffffffffffffffffffffff168273ffffffffffffffffffffffffffffffffffffffff167fddf252ad1be2c89b69c2b068fc378daa952ba7f163c4a11628f55a4df523b3ef836040518082815260200191505060405180910390a35050565b60008082111515611ac3576040517f08c379a000000000000000000000000000000000000000000000000000000000815260040180806020018281038252602a8152602001807f4d75737420707572636861736520616e20616d6f756e7420677265617465722081526020017f7468616e207a65726f2e0000000000000000000000000000000000000000000081525060400191505060405180910390fd5b611acc826113be565b9050803410151515611b6c576040517f08c379a00000000000000000000000000000000000000000000000000000000081526004018080602001828103825260278152602001807f4d7573742073656e642072657175697369746520616d6f756e7420746f20707581526020017f7263686173652e0000000000000000000000000000000000000000000000000081525060400191505060405180910390fd5b611b763383611cf2565b611b8b8160065461187590919063ffffffff16565b60068190555080341115611bf3573373ffffffffffffffffffffffffffffffffffffffff166108fc611bc6833461163690919063ffffffff16565b9081150290604051600060405180830381858888f19350505050158015611bf1573d6000803e3d6000fd5b505b7f8a9dcf4e150b1153011b29fec302d5be0c13e84fa8f56ab78587f778a32a90dd8282604051808381526020018281526020019250505060405180910390a15050565b6000806000611c51600160075461187590919063ffffffff16565b9150601282611c5e610be7565b60ff1602600a0a039050611cab670de0b6b3a7640000611c9d600854611c8f86878a0a611e3290919063ffffffff16565b611e3290919063ffffffff16565b611e3290919063ffffffff16565b92505050919050565b6000806000841415611cc95760009150611ceb565b8284029050828482811515611cda57fe5b04141515611ce757600080fd5b8091505b5092915050565b60008273ffffffffffffffffffffffffffffffffffffffff1614151515611d1857600080fd5b611d2d8160055461187590919063ffffffff16565b600581905550611d8581600360008573ffffffffffffffffffffffffffffffffffffffff1673ffffffffffffffffffffffffffffffffffffffff1681526020019081526020016000205461187590919063ffffffff16565b600360008473ffffffffffffffffffffffffffffffffffffffff1673ffffffffffffffffffffffffffffffffffffffff168152602001908152602001600020819055508173ffffffffffffffffffffffffffffffffffffffff16600073ffffffffffffffffffffffffffffffffffffffff167fddf252ad1be2c89b69c2b068fc378daa952ba7f163c4a11628f55a4df523b3ef836040518082815260200191505060405180910390a35050565b600080600083111515611e4457600080fd5b8284811515611e4f57fe5b04905080915050929150505600a165627a7a72305820ddfc285b7df0055254c643558f25c61c418fe3a49309ae28af80967206d8a3110029",
  "source": "pragma solidity ^0.4.24;\n\nimport \"@convergent/arc/contracts/EthPolynomialCurvedToken.sol\";\n\ncontract Convergent_Billboard is EthPolynomialCurvedToken {\n    using SafeMath for uint256;\n\n    uint256 public cashed;                      // Amount of tokens that have been \"cashed out.\"\n    uint256 public maxTokens;                   // Total amount of Billboard tokens to be sold.\n    uint256 public requiredAmt;                 // Required amount of token per banner change.\n    address public safe;                        // Target to send the funds.\n\n    event Advertisement(bytes32 what, uint256 indexed when);\n\n    constructor(uint256 _maxTokens, uint256 _requiredAmt, address _safe)\n        EthPolynomialCurvedToken(\n            \"Convergent Billboard Token\",\n            \"CBT\",\n            18,\n            1,\n            1000\n        )\n        public\n    {\n        maxTokens = _maxTokens * 10**18;\n        requiredAmt = _requiredAmt * 10**18;\n        safe = _safe;\n    }\n\n    /// Overwrite\n    function mint(uint256 numTokens) public payable {\n        uint256 newTotal = totalSupply().add(numTokens);\n        if (newTotal > maxTokens) {\n            super.mint(maxTokens.sub(totalSupply()));\n            // The super.mint() function will not allow 0\n            // as an argument rendering this as sufficient\n            // to enforce a cap of maxTokens.\n        } else {\n            super.mint(numTokens);\n        }\n    }\n\n    function purchaseAdvertisement(bytes32 _what)\n        public\n        payable\n    {\n        mint(requiredAmt);\n        submit(_what);\n    }\n\n    function submit(bytes32 _what)\n        public\n    {\n        require(balanceOf(msg.sender) >= requiredAmt);\n\n        cashed++; // increment cashed counter\n        _transfer(msg.sender, address(0x1337), requiredAmt);\n\n        uint256 dec = 10**uint256(decimals());\n        uint256 newCliff = curveIntegral(\n            (cashed).mul(dec)\n        );\n        uint256 oldCliff = curveIntegral(\n            (cashed - 1).mul(dec)\n        );\n        uint256 cliffDiff = newCliff.sub(oldCliff);\n        safe.transfer(cliffDiff);\n\n        emit Advertisement(_what, block.timestamp);\n    }\n\n    function () public { revert(); }\n}\n",
  "sourcePath": "/home/volt/workspaces/convergentcx/billboard/contracts/Convergent_Billboard.sol",
  "compiler": {
    "name": "solc",
    "version": "0.4.25+commit.59dbf8f1.Emscripten.clang"
  },
  "schemaVersion": "3.0.0-beta.1",
  "updatedAt": "2018-11-21T00:18:30.278Z",
  "devdoc": {
    "methods": {
      "allowance(address,address)": {
        "details": "Function to check the amount of tokens that an owner allowed to a spender.",
        "params": {
          "owner": "address The address which owns the funds.",
          "spender": "address The address which will spend the funds."
        },
        "return": "A uint256 specifying the amount of tokens still available for the spender."
      },
      "approve(address,uint256)": {
        "details": "Approve the passed address to spend the specified amount of tokens on behalf of msg.sender. Beware that changing an allowance with this method brings the risk that someone may use both the old and the new allowance by unfortunate transaction ordering. One possible solution to mitigate this race condition is to first reduce the spender's allowance to 0 and set the desired value afterwards: https://github.com/ethereum/EIPs/issues/20#issuecomment-263524729",
        "params": {
          "spender": "The address which will spend the funds.",
          "value": "The amount of tokens to be spent."
        }
      },
      "balanceOf(address)": {
        "details": "Gets the balance of the specified address.",
        "params": {
          "owner": "The address to query the the balance of."
        },
        "return": "An uint256 representing the amount owned by the passed address."
      },
      "decimals()": {
        "return": "the number of decimals of the token."
      },
      "decreaseAllowance(address,uint256)": {
        "details": "Decrease the amount of tokens that an owner allowed to a spender. approve should be called when allowed_[_spender] == 0. To decrement allowed value is better to use this function to avoid 2 calls (and wait until the first transaction is mined) From MonolithDAO Token.sol",
        "params": {
          "spender": "The address which will spend the funds.",
          "subtractedValue": "The amount of tokens to decrease the allowance by."
        }
      },
      "increaseAllowance(address,uint256)": {
        "details": "Increase the amount of tokens that an owner allowed to a spender. approve should be called when allowed_[_spender] == 0. To increment allowed value is better to use this function to avoid 2 calls (and wait until the first transaction is mined) From MonolithDAO Token.sol",
        "params": {
          "addedValue": "The amount of tokens to increase the allowance by.",
          "spender": "The address which will spend the funds."
        }
      },
      "name()": {
        "return": "the name of the token."
      },
      "symbol()": {
        "return": "the symbol of the token."
      },
      "totalSupply()": {
        "details": "Total number of tokens in existence"
      },
      "transfer(address,uint256)": {
        "details": "Transfer token for a specified address",
        "params": {
          "to": "The address to transfer to.",
          "value": "The amount to be transferred."
        }
      },
      "transferFrom(address,address,uint256)": {
        "details": "Transfer tokens from one address to another",
        "params": {
          "from": "address The address which you want to send tokens from",
          "to": "address The address which you want to transfer to",
          "value": "uint256 the amount of tokens to be transferred"
        }
      }
    }
  },
  "userdoc": {
    "methods": {
      "mint(uint256)": {
        "notice": "Overwrite"
      }
    }
  }
}