{
  "contractName": "Convergent_Billboard",
  "abi": [
    {
      "constant": true,
      "inputs": [],
      "name": "name",
      "outputs": [
        {
          "name": "",
          "type": "string"
        }
      ],
      "payable": false,
      "stateMutability": "view",
      "type": "function",
      "signature": "0x06fdde03"
    },
    {
      "constant": false,
      "inputs": [
        {
          "name": "spender",
          "type": "address"
        },
        {
          "name": "value",
          "type": "uint256"
        }
      ],
      "name": "approve",
      "outputs": [
        {
          "name": "",
          "type": "bool"
        }
      ],
      "payable": false,
      "stateMutability": "nonpayable",
      "type": "function",
      "signature": "0x095ea7b3"
    },
    {
      "constant": true,
      "inputs": [],
      "name": "requiredAmt",
      "outputs": [
        {
          "name": "",
          "type": "uint256"
        }
      ],
      "payable": false,
      "stateMutability": "view",
      "type": "function",
      "signature": "0x0fb22620"
    },
    {
      "constant": true,
      "inputs": [],
      "name": "totalSupply",
      "outputs": [
        {
          "name": "",
          "type": "uint256"
        }
      ],
      "payable": false,
      "stateMutability": "view",
      "type": "function",
      "signature": "0x18160ddd"
    },
    {
      "constant": false,
      "inputs": [
        {
          "name": "from",
          "type": "address"
        },
        {
          "name": "to",
          "type": "address"
        },
        {
          "name": "value",
          "type": "uint256"
        }
      ],
      "name": "transferFrom",
      "outputs": [
        {
          "name": "",
          "type": "bool"
        }
      ],
      "payable": false,
      "stateMutability": "nonpayable",
      "type": "function",
      "signature": "0x23b872dd"
    },
    {
      "constant": true,
      "inputs": [],
      "name": "decimals",
      "outputs": [
        {
          "name": "",
          "type": "uint8"
        }
      ],
      "payable": false,
      "stateMutability": "view",
      "type": "function",
      "signature": "0x313ce567"
    },
    {
      "constant": false,
      "inputs": [
        {
          "name": "spender",
          "type": "address"
        },
        {
          "name": "addedValue",
          "type": "uint256"
        }
      ],
      "name": "increaseAllowance",
      "outputs": [
        {
          "name": "",
          "type": "bool"
        }
      ],
      "payable": false,
      "stateMutability": "nonpayable",
      "type": "function",
      "signature": "0x39509351"
    },
    {
      "constant": false,
      "inputs": [
        {
          "name": "numTokens",
          "type": "uint256"
        }
      ],
      "name": "burn",
      "outputs": [],
      "payable": false,
      "stateMutability": "nonpayable",
      "type": "function",
      "signature": "0x42966c68"
    },
    {
      "constant": true,
      "inputs": [],
      "name": "exponent",
      "outputs": [
        {
          "name": "",
          "type": "uint256"
        }
      ],
      "payable": false,
      "stateMutability": "view",
      "type": "function",
      "signature": "0x52f6ee58"
    },
    {
      "constant": true,
      "inputs": [],
      "name": "cashed",
      "outputs": [
        {
          "name": "",
          "type": "uint256"
        }
      ],
      "payable": false,
      "stateMutability": "view",
      "type": "function",
      "signature": "0x5cb27801"
    },
    {
      "constant": true,
      "inputs": [],
      "name": "inverseSlope",
      "outputs": [
        {
          "name": "",
          "type": "uint256"
        }
      ],
      "payable": false,
      "stateMutability": "view",
      "type": "function",
      "signature": "0x6400be1d"
    },
    {
      "constant": true,
      "inputs": [
        {
          "name": "owner",
          "type": "address"
        }
      ],
      "name": "balanceOf",
      "outputs": [
        {
          "name": "",
          "type": "uint256"
        }
      ],
      "payable": false,
      "stateMutability": "view",
      "type": "function",
      "signature": "0x70a08231"
    },
    {
      "constant": false,
      "inputs": [],
      "name": "renounceOwnership",
      "outputs": [],
      "payable": false,
      "stateMutability": "nonpayable",
      "type": "function",
      "signature": "0x715018a6"
    },
    {
      "constant": true,
      "inputs": [],
      "name": "owner",
      "outputs": [
        {
          "name": "",
          "type": "address"
        }
      ],
      "payable": false,
      "stateMutability": "view",
      "type": "function",
      "signature": "0x8da5cb5b"
    },
    {
      "constant": true,
      "inputs": [],
      "name": "isOwner",
      "outputs": [
        {
          "name": "",
          "type": "bool"
        }
      ],
      "payable": false,
      "stateMutability": "view",
      "type": "function",
      "signature": "0x8f32d59b"
    },
    {
      "constant": true,
      "inputs": [],
      "name": "symbol",
      "outputs": [
        {
          "name": "",
          "type": "string"
        }
      ],
      "payable": false,
      "stateMutability": "view",
      "type": "function",
      "signature": "0x95d89b41"
    },
    {
      "constant": true,
      "inputs": [],
      "name": "poolBalance",
      "outputs": [
        {
          "name": "",
          "type": "uint256"
        }
      ],
      "payable": false,
      "stateMutability": "view",
      "type": "function",
      "signature": "0x96365d44"
    },
    {
      "constant": false,
      "inputs": [
        {
          "name": "numTokens",
          "type": "uint256"
        }
      ],
      "name": "mint",
      "outputs": [],
      "payable": true,
      "stateMutability": "payable",
      "type": "function",
      "signature": "0xa0712d68"
    },
    {
      "constant": false,
      "inputs": [
        {
          "name": "spender",
          "type": "address"
        },
        {
          "name": "subtractedValue",
          "type": "uint256"
        }
      ],
      "name": "decreaseAllowance",
      "outputs": [
        {
          "name": "",
          "type": "bool"
        }
      ],
      "payable": false,
      "stateMutability": "nonpayable",
      "type": "function",
      "signature": "0xa457c2d7"
    },
    {
      "constant": false,
      "inputs": [
        {
          "name": "to",
          "type": "address"
        },
        {
          "name": "value",
          "type": "uint256"
        }
      ],
      "name": "transfer",
      "outputs": [
        {
          "name": "",
          "type": "bool"
        }
      ],
      "payable": false,
      "stateMutability": "nonpayable",
      "type": "function",
      "signature": "0xa9059cbb"
    },
    {
      "constant": true,
      "inputs": [
        {
          "name": "numTokens",
          "type": "uint256"
        }
      ],
      "name": "priceToMint",
      "outputs": [
        {
          "name": "",
          "type": "uint256"
        }
      ],
      "payable": false,
      "stateMutability": "view",
      "type": "function",
      "signature": "0xb9d36743"
    },
    {
      "constant": true,
      "inputs": [
        {
          "name": "numTokens",
          "type": "uint256"
        }
      ],
      "name": "rewardForBurn",
      "outputs": [
        {
          "name": "",
          "type": "uint256"
        }
      ],
      "payable": false,
      "stateMutability": "view",
      "type": "function",
      "signature": "0xc544682b"
    },
    {
      "constant": true,
      "inputs": [
        {
          "name": "owner",
          "type": "address"
        },
        {
          "name": "spender",
          "type": "address"
        }
      ],
      "name": "allowance",
      "outputs": [
        {
          "name": "",
          "type": "uint256"
        }
      ],
      "payable": false,
      "stateMutability": "view",
      "type": "function",
      "signature": "0xdd62ed3e"
    },
    {
      "constant": false,
      "inputs": [
        {
          "name": "newOwner",
          "type": "address"
        }
      ],
      "name": "transferOwnership",
      "outputs": [],
      "payable": false,
      "stateMutability": "nonpayable",
      "type": "function",
      "signature": "0xf2fde38b"
    },
    {
      "inputs": [],
      "payable": false,
      "stateMutability": "nonpayable",
      "type": "constructor",
      "signature": "constructor"
    },
    {
      "anonymous": false,
      "inputs": [
        {
          "indexed": false,
          "name": "what",
          "type": "bytes32"
        },
        {
          "indexed": true,
          "name": "when",
          "type": "uint256"
        }
      ],
      "name": "Advertisement",
      "type": "event",
      "signature": "0x20afb6b5480941b31017b07508c24c719ee2e80878477f377b62ba2922bd4266"
    },
    {
      "anonymous": false,
      "inputs": [
        {
          "indexed": false,
          "name": "amount",
          "type": "uint256"
        },
        {
          "indexed": false,
          "name": "totalCost",
          "type": "uint256"
        }
      ],
      "name": "Minted",
      "type": "event",
      "signature": "0x8a9dcf4e150b1153011b29fec302d5be0c13e84fa8f56ab78587f778a32a90dd"
    },
    {
      "anonymous": false,
      "inputs": [
        {
          "indexed": false,
          "name": "amount",
          "type": "uint256"
        },
        {
          "indexed": false,
          "name": "reward",
          "type": "uint256"
        }
      ],
      "name": "Burned",
      "type": "event",
      "signature": "0xcec1bae6e024d929f2929f3478ce70f55f9c636c8ef7b5073a61d7c3a432451b"
    },
    {
      "anonymous": false,
      "inputs": [
        {
          "indexed": true,
          "name": "from",
          "type": "address"
        },
        {
          "indexed": true,
          "name": "to",
          "type": "address"
        },
        {
          "indexed": false,
          "name": "value",
          "type": "uint256"
        }
      ],
      "name": "Transfer",
      "type": "event",
      "signature": "0xddf252ad1be2c89b69c2b068fc378daa952ba7f163c4a11628f55a4df523b3ef"
    },
    {
      "anonymous": false,
      "inputs": [
        {
          "indexed": true,
          "name": "owner",
          "type": "address"
        },
        {
          "indexed": true,
          "name": "spender",
          "type": "address"
        },
        {
          "indexed": false,
          "name": "value",
          "type": "uint256"
        }
      ],
      "name": "Approval",
      "type": "event",
      "signature": "0x8c5be1e5ebec7d5bd14f71427d1e84f3dd0314c0f7b2291e5b200ac8c7c3b925"
    },
    {
      "anonymous": false,
      "inputs": [
        {
          "indexed": true,
          "name": "previousOwner",
          "type": "address"
        }
      ],
      "name": "OwnershipRenounced",
      "type": "event",
      "signature": "0xf8df31144d9c2f0f6b59d69b8b98abd5459d07f2742c4df920b25aae33c64820"
    },
    {
      "anonymous": false,
      "inputs": [
        {
          "indexed": true,
          "name": "previousOwner",
          "type": "address"
        },
        {
          "indexed": true,
          "name": "newOwner",
          "type": "address"
        }
      ],
      "name": "OwnershipTransferred",
      "type": "event",
      "signature": "0x8be0079c531659141344cd1fd0a4f28419497f9722a3daafe3b4186f6b6457e0"
    },
    {
      "constant": false,
      "inputs": [
        {
          "name": "_what",
          "type": "bytes32"
        }
      ],
      "name": "purchaseAdvertisement",
      "outputs": [],
      "payable": true,
      "stateMutability": "payable",
      "type": "function",
      "signature": "0xe927594f"
    },
    {
      "constant": false,
      "inputs": [
        {
          "name": "_what",
          "type": "bytes32"
        }
      ],
      "name": "submit",
      "outputs": [],
      "payable": false,
      "stateMutability": "nonpayable",
      "type": "function",
      "signature": "0xd9caa3d2"
    }
  ],
  "bytecode": "0x6080604052670de0b6b3a7640000600b553480156200001d57600080fd5b506040805190810160405280601481526020017f436f6e76657267656e742042696c6c626f6172640000000000000000000000008152506040805190810160405280600c81526020017f434e5652474e545f42494c4c0000000000000000000000000000000000000000815250601260016103e8848484828282336000806101000a81548173ffffffffffffffffffffffffffffffffffffffff021916908373ffffffffffffffffffffffffffffffffffffffff1602179055508260019080519060200190620000ef92919062000143565b5081600290805190602001906200010892919062000143565b5080600360006101000a81548160ff021916908360ff16021790555050505050505081600881905550806009819055505050505050620001f2565b828054600181600116156101000203166002900490600052602060002090601f016020900481019282601f106200018657805160ff1916838001178555620001b7565b82800160010185558215620001b7579182015b82811115620001b657825182559160200191906001019062000199565b5b509050620001c69190620001ca565b5090565b620001ef91905b80821115620001eb576000816000905550600101620001d1565b5090565b90565b611e5a80620002026000396000f300608060405260043610610154576000357c0100000000000000000000000000000000000000000000000000000000900463ffffffff16806306fdde0314610159578063095ea7b3146101e95780630fb226201461024e57806318160ddd1461027957806323b872dd146102a4578063313ce56714610329578063395093511461035a57806342966c68146103bf57806352f6ee58146103ec5780635cb27801146104175780636400be1d1461044257806370a082311461046d578063715018a6146104c45780638da5cb5b146104db5780638f32d59b1461053257806395d89b411461056157806396365d44146105f1578063a0712d681461061c578063a457c2d71461063c578063a9059cbb146106a1578063b9d3674314610706578063c544682b14610747578063d9caa3d214610788578063dd62ed3e146107b9578063e927594f14610830578063f2fde38b14610854575b600080fd5b34801561016557600080fd5b5061016e610897565b6040518080602001828103825283818151815260200191508051906020019080838360005b838110156101ae578082015181840152602081019050610193565b50505050905090810190601f1680156101db5780820380516001836020036101000a031916815260200191505b509250505060405180910390f35b3480156101f557600080fd5b50610234600480360381019080803573ffffffffffffffffffffffffffffffffffffffff16906020019092919080359060200190929190505050610939565b604051808215151515815260200191505060405180910390f35b34801561025a57600080fd5b50610263610a66565b6040518082815260200191505060405180910390f35b34801561028557600080fd5b5061028e610a6c565b6040518082815260200191505060405180910390f35b3480156102b057600080fd5b5061030f600480360381019080803573ffffffffffffffffffffffffffffffffffffffff169060200190929190803573ffffffffffffffffffffffffffffffffffffffff16906020019092919080359060200190929190505050610a76565b604051808215151515815260200191505060405180910390f35b34801561033557600080fd5b5061033e610c28565b604051808260ff1660ff16815260200191505060405180910390f35b34801561036657600080fd5b506103a5600480360381019080803573ffffffffffffffffffffffffffffffffffffffff16906020019092919080359060200190929190505050610c3f565b604051808215151515815260200191505060405180910390f35b3480156103cb57600080fd5b506103ea60048036038101908080359060200190929190505050610e76565b005b3480156103f857600080fd5b50610401610f49565b6040518082815260200191505060405180910390f35b34801561042357600080fd5b5061042c610f4f565b6040518082815260200191505060405180910390f35b34801561044e57600080fd5b50610457610f55565b6040518082815260200191505060405180910390f35b34801561047957600080fd5b506104ae600480360381019080803573ffffffffffffffffffffffffffffffffffffffff169060200190929190505050610f5b565b6040518082815260200191505060405180910390f35b3480156104d057600080fd5b506104d9610fa4565b005b3480156104e757600080fd5b506104f061105e565b604051808273ffffffffffffffffffffffffffffffffffffffff1673ffffffffffffffffffffffffffffffffffffffff16815260200191505060405180910390f35b34801561053e57600080fd5b50610547611087565b604051808215151515815260200191505060405180910390f35b34801561056d57600080fd5b506105766110de565b6040518080602001828103825283818151815260200191508051906020019080838360005b838110156105b657808201518184015260208101905061059b565b50505050905090810190601f1680156105e35780820380516001836020036101000a031916815260200191505b509250505060405180910390f35b3480156105fd57600080fd5b50610606611180565b6040518082815260200191505060405180910390f35b61063a60048036038101908080359060200190929190505050611186565b005b34801561064857600080fd5b50610687600480360381019080803573ffffffffffffffffffffffffffffffffffffffff1690602001909291908035906020019092919050505061125c565b604051808215151515815260200191505060405180910390f35b3480156106ad57600080fd5b506106ec600480360381019080803573ffffffffffffffffffffffffffffffffffffffff16906020019092919080359060200190929190505050611493565b604051808215151515815260200191505060405180910390f35b34801561071257600080fd5b50610731600480360381019080803590602001909291905050506114aa565b6040518082815260200191505060405180910390f35b34801561075357600080fd5b50610772600480360381019080803590602001909291905050506114e9565b6040518082815260200191505060405180910390f35b34801561079457600080fd5b506107b76004803603810190808035600019169060200190929190505050611528565b005b3480156107c557600080fd5b5061081a600480360381019080803573ffffffffffffffffffffffffffffffffffffffff169060200190929190803573ffffffffffffffffffffffffffffffffffffffff169060200190929190505050611663565b6040518082815260200191505060405180910390f35b61085260048036038101908080356000191690602001909291905050506116ea565b005b34801561086057600080fd5b50610895600480360381019080803573ffffffffffffffffffffffffffffffffffffffff169060200190929190505050611701565b005b606060018054600181600116156101000203166002900480601f01602080910402602001604051908101604052809291908181526020018280546001816001161561010002031660029004801561092f5780601f106109045761010080835404028352916020019161092f565b820191906000526020600020905b81548152906001019060200180831161091257829003601f168201915b5050505050905090565b60008073ffffffffffffffffffffffffffffffffffffffff168373ffffffffffffffffffffffffffffffffffffffff161415151561097657600080fd5b81600560003373ffffffffffffffffffffffffffffffffffffffff1673ffffffffffffffffffffffffffffffffffffffff16815260200190815260200160002060008573ffffffffffffffffffffffffffffffffffffffff1673ffffffffffffffffffffffffffffffffffffffff168152602001908152602001600020819055508273ffffffffffffffffffffffffffffffffffffffff163373ffffffffffffffffffffffffffffffffffffffff167f8c5be1e5ebec7d5bd14f71427d1e84f3dd0314c0f7b2291e5b200ac8c7c3b925846040518082815260200191505060405180910390a36001905092915050565b600b5481565b6000600654905090565b6000600560008573ffffffffffffffffffffffffffffffffffffffff1673ffffffffffffffffffffffffffffffffffffffff16815260200190815260200160002060003373ffffffffffffffffffffffffffffffffffffffff1673ffffffffffffffffffffffffffffffffffffffff168152602001908152602001600020548211151515610b0357600080fd5b610b9282600560008773ffffffffffffffffffffffffffffffffffffffff1673ffffffffffffffffffffffffffffffffffffffff16815260200190815260200160002060003373ffffffffffffffffffffffffffffffffffffffff1673ffffffffffffffffffffffffffffffffffffffff1681526020019081526020016000205461172090919063ffffffff16565b600560008673ffffffffffffffffffffffffffffffffffffffff1673ffffffffffffffffffffffffffffffffffffffff16815260200190815260200160002060003373ffffffffffffffffffffffffffffffffffffffff1673ffffffffffffffffffffffffffffffffffffffff16815260200190815260200160002081905550610c1d848484611741565b600190509392505050565b6000600360009054906101000a900460ff16905090565b60008073ffffffffffffffffffffffffffffffffffffffff168373ffffffffffffffffffffffffffffffffffffffff1614151515610c7c57600080fd5b610d0b82600560003373ffffffffffffffffffffffffffffffffffffffff1673ffffffffffffffffffffffffffffffffffffffff16815260200190815260200160002060008673ffffffffffffffffffffffffffffffffffffffff1673ffffffffffffffffffffffffffffffffffffffff1681526020019081526020016000205461195f90919063ffffffff16565b600560003373ffffffffffffffffffffffffffffffffffffffff1673ffffffffffffffffffffffffffffffffffffffff16815260200190815260200160002060008573ffffffffffffffffffffffffffffffffffffffff1673ffffffffffffffffffffffffffffffffffffffff168152602001908152602001600020819055508273ffffffffffffffffffffffffffffffffffffffff163373ffffffffffffffffffffffffffffffffffffffff167f8c5be1e5ebec7d5bd14f71427d1e84f3dd0314c0f7b2291e5b200ac8c7c3b925600560003373ffffffffffffffffffffffffffffffffffffffff1673ffffffffffffffffffffffffffffffffffffffff16815260200190815260200160002060008773ffffffffffffffffffffffffffffffffffffffff1673ffffffffffffffffffffffffffffffffffffffff168152602001908152602001600020546040518082815260200191505060405180910390a36001905092915050565b600081610e8233610f5b565b10151515610e8f57600080fd5b610e98826114e9565b9050610ea43383611980565b610eb98160075461172090919063ffffffff16565b6007819055503373ffffffffffffffffffffffffffffffffffffffff166108fc829081150290604051600060405180830381858888f19350505050158015610f05573d6000803e3d6000fd5b507fcec1bae6e024d929f2929f3478ce70f55f9c636c8ef7b5073a61d7c3a432451b8282604051808381526020018281526020019250505060405180910390a15050565b60085481565b600a5481565b60095481565b6000600460008373ffffffffffffffffffffffffffffffffffffffff1673ffffffffffffffffffffffffffffffffffffffff168152602001908152602001600020549050919050565b610fac611087565b1515610fb757600080fd5b6000809054906101000a900473ffffffffffffffffffffffffffffffffffffffff1673ffffffffffffffffffffffffffffffffffffffff167ff8df31144d9c2f0f6b59d69b8b98abd5459d07f2742c4df920b25aae33c6482060405160405180910390a260008060006101000a81548173ffffffffffffffffffffffffffffffffffffffff021916908373ffffffffffffffffffffffffffffffffffffffff160217905550565b60008060009054906101000a900473ffffffffffffffffffffffffffffffffffffffff16905090565b60008060009054906101000a900473ffffffffffffffffffffffffffffffffffffffff1673ffffffffffffffffffffffffffffffffffffffff163373ffffffffffffffffffffffffffffffffffffffff1614905090565b606060028054600181600116156101000203166002900480601f0160208091040260200160405190810160405280929190818152602001828054600181600116156101000203166002900480156111765780601f1061114b57610100808354040283529160200191611176565b820191906000526020600020905b81548152906001019060200180831161115957829003601f168201915b5050505050905090565b60075481565b6000611191826114aa565b90508034101515156111a257600080fd5b6111ac3383611b0e565b6111c18160075461195f90919063ffffffff16565b60078190555080341115611219573373ffffffffffffffffffffffffffffffffffffffff166108fc8234039081150290604051600060405180830381858888f19350505050158015611217573d6000803e3d6000fd5b505b7f8a9dcf4e150b1153011b29fec302d5be0c13e84fa8f56ab78587f778a32a90dd8282604051808381526020018281526020019250505060405180910390a15050565b60008073ffffffffffffffffffffffffffffffffffffffff168373ffffffffffffffffffffffffffffffffffffffff161415151561129957600080fd5b61132882600560003373ffffffffffffffffffffffffffffffffffffffff1673ffffffffffffffffffffffffffffffffffffffff16815260200190815260200160002060008673ffffffffffffffffffffffffffffffffffffffff1673ffffffffffffffffffffffffffffffffffffffff1681526020019081526020016000205461172090919063ffffffff16565b600560003373ffffffffffffffffffffffffffffffffffffffff1673ffffffffffffffffffffffffffffffffffffffff16815260200190815260200160002060008573ffffffffffffffffffffffffffffffffffffffff1673ffffffffffffffffffffffffffffffffffffffff168152602001908152602001600020819055508273ffffffffffffffffffffffffffffffffffffffff163373ffffffffffffffffffffffffffffffffffffffff167f8c5be1e5ebec7d5bd14f71427d1e84f3dd0314c0f7b2291e5b200ac8c7c3b925600560003373ffffffffffffffffffffffffffffffffffffffff1673ffffffffffffffffffffffffffffffffffffffff16815260200190815260200160002060008773ffffffffffffffffffffffffffffffffffffffff1673ffffffffffffffffffffffffffffffffffffffff168152602001908152602001600020546040518082815260200191505060405180910390a36001905092915050565b60006114a0338484611741565b6001905092915050565b60006114e26007546114d46114cf856114c1610a6c565b61195f90919063ffffffff16565b611c4e565b61172090919063ffffffff16565b9050919050565b600061152161151061150b846114fd610a6c565b61172090919063ffffffff16565b611c4e565b60075461172090919063ffffffff16565b9050919050565b600080600080600b5461153a33610f5b565b1015151561154757600080fd5b600a6000815480929190600101919050555061156833611337600b54611741565b611570610c28565b60ff16600a0a935061159561159085600a54611ccc90919063ffffffff16565b611c4e565b92506115b76115b2856001600a5403611ccc90919063ffffffff16565b611c4e565b91506115cc828461172090919063ffffffff16565b90506115d661105e565b73ffffffffffffffffffffffffffffffffffffffff166108fc829081150290604051600060405180830381858888f1935050505015801561161b573d6000803e3d6000fd5b50427f20afb6b5480941b31017b07508c24c719ee2e80878477f377b62ba2922bd42668660405180826000191660001916815260200191505060405180910390a25050505050565b6000600560008473ffffffffffffffffffffffffffffffffffffffff1673ffffffffffffffffffffffffffffffffffffffff16815260200190815260200160002060008373ffffffffffffffffffffffffffffffffffffffff1673ffffffffffffffffffffffffffffffffffffffff16815260200190815260200160002054905092915050565b6116f5600b54611186565b6116fe81611528565b50565b611709611087565b151561171457600080fd5b61171d81611d0a565b50565b60008083831115151561173257600080fd5b82840390508091505092915050565b600460008473ffffffffffffffffffffffffffffffffffffffff1673ffffffffffffffffffffffffffffffffffffffff16815260200190815260200160002054811115151561178f57600080fd5b600073ffffffffffffffffffffffffffffffffffffffff168273ffffffffffffffffffffffffffffffffffffffff16141515156117cb57600080fd5b61181d81600460008673ffffffffffffffffffffffffffffffffffffffff1673ffffffffffffffffffffffffffffffffffffffff1681526020019081526020016000205461172090919063ffffffff16565b600460008573ffffffffffffffffffffffffffffffffffffffff1673ffffffffffffffffffffffffffffffffffffffff168152602001908152602001600020819055506118b281600460008573ffffffffffffffffffffffffffffffffffffffff1673ffffffffffffffffffffffffffffffffffffffff1681526020019081526020016000205461195f90919063ffffffff16565b600460008473ffffffffffffffffffffffffffffffffffffffff1673ffffffffffffffffffffffffffffffffffffffff168152602001908152602001600020819055508173ffffffffffffffffffffffffffffffffffffffff168373ffffffffffffffffffffffffffffffffffffffff167fddf252ad1be2c89b69c2b068fc378daa952ba7f163c4a11628f55a4df523b3ef836040518082815260200191505060405180910390a3505050565b600080828401905083811015151561197657600080fd5b8091505092915050565b60008273ffffffffffffffffffffffffffffffffffffffff16141515156119a657600080fd5b600460008373ffffffffffffffffffffffffffffffffffffffff1673ffffffffffffffffffffffffffffffffffffffff1681526020019081526020016000205481111515156119f457600080fd5b611a098160065461172090919063ffffffff16565b600681905550611a6181600460008573ffffffffffffffffffffffffffffffffffffffff1673ffffffffffffffffffffffffffffffffffffffff1681526020019081526020016000205461172090919063ffffffff16565b600460008473ffffffffffffffffffffffffffffffffffffffff1673ffffffffffffffffffffffffffffffffffffffff16815260200190815260200160002081905550600073ffffffffffffffffffffffffffffffffffffffff168273ffffffffffffffffffffffffffffffffffffffff167fddf252ad1be2c89b69c2b068fc378daa952ba7f163c4a11628f55a4df523b3ef836040518082815260200191505060405180910390a35050565b60008273ffffffffffffffffffffffffffffffffffffffff1614151515611b3457600080fd5b611b498160065461195f90919063ffffffff16565b600681905550611ba181600460008573ffffffffffffffffffffffffffffffffffffffff1673ffffffffffffffffffffffffffffffffffffffff1681526020019081526020016000205461195f90919063ffffffff16565b600460008473ffffffffffffffffffffffffffffffffffffffff1673ffffffffffffffffffffffffffffffffffffffff168152602001908152602001600020819055508173ffffffffffffffffffffffffffffffffffffffff16600073ffffffffffffffffffffffffffffffffffffffff167fddf252ad1be2c89b69c2b068fc378daa952ba7f163c4a11628f55a4df523b3ef836040518082815260200191505060405180910390a35050565b6000806000611c69600160085461195f90919063ffffffff16565b9150601282611c76610c28565b60ff1602600a0a039050611cc3670de0b6b3a7640000611cb5600954611ca786878a0a611e0490919063ffffffff16565b611e0490919063ffffffff16565b611e0490919063ffffffff16565b92505050919050565b6000806000841415611ce15760009150611d03565b8284029050828482811515611cf257fe5b04141515611cff57600080fd5b8091505b5092915050565b600073ffffffffffffffffffffffffffffffffffffffff168173ffffffffffffffffffffffffffffffffffffffff1614151515611d4657600080fd5b8073ffffffffffffffffffffffffffffffffffffffff166000809054906101000a900473ffffffffffffffffffffffffffffffffffffffff1673ffffffffffffffffffffffffffffffffffffffff167f8be0079c531659141344cd1fd0a4f28419497f9722a3daafe3b4186f6b6457e060405160405180910390a3806000806101000a81548173ffffffffffffffffffffffffffffffffffffffff021916908373ffffffffffffffffffffffffffffffffffffffff16021790555050565b600080600083111515611e1657600080fd5b8284811515611e2157fe5b04905080915050929150505600a165627a7a72305820d32dec43e73734301ad746a8d751e19650e8f310648dae20fb6b9f924d7ae4640029",
  "source": "pragma solidity ^0.4.24;\n\nimport \"openzeppelin-solidity/contracts/ownership/Ownable.sol\";\nimport \"@convergent/arc/contracts/EthPolynomialCurvedToken.sol\";\n\ncontract Convergent_Billboard is Ownable, EthPolynomialCurvedToken {\n    using SafeMath for uint256;\n\n    uint256 public cashed; // Amount of tokens that have been \"cashed out.\"\n    uint256  public requiredAmt = 1 * 10**18; // One token per banner change.\n\n    event Advertisement(bytes32 what, uint256 indexed when);\n\n    constructor()\n        EthPolynomialCurvedToken(\n            \"Convergent Billboard\",\n            \"CNVRGNT_BILL\",\n            18,\n            1,\n            1000\n        ) public\n    {}\n    \n    function purchaseAdvertisement(bytes32 _what) public payable {\n        mint(requiredAmt);\n        submit(_what);\n    }\n\n    function submit(bytes32 _what)\n        public\n    {\n        require(balanceOf(msg.sender) >= requiredAmt);\n\n        cashed++; // increment cashed counter\n        _transfer(msg.sender, address(0x1337), requiredAmt);\n\n        uint256 dec = 10**uint256(decimals());\n        uint256 newCliff = curveIntegral(\n            (cashed).mul(dec)\n        );\n        uint256 oldCliff = curveIntegral(\n            (cashed - 1).mul(dec)\n        );\n        uint256 cliffDiff = newCliff.sub(oldCliff);\n        owner().transfer(cliffDiff);\n\n        emit Advertisement(_what, block.timestamp);\n    }\n}\n",
  "sourcePath": "/home/volt/workspaces/convergentcx/billboard/contracts/Convergent_Billboard.sol",
  "compiler": {
    "name": "solc",
    "version": "0.4.25+commit.59dbf8f1.Emscripten.clang"
  },
  "schemaVersion": "3.0.0-beta.1",
  "updatedAt": "2018-11-18T15:08:35.243Z",
  "devdoc": {
    "methods": {
      "allowance(address,address)": {
        "details": "Function to check the amount of tokens that an owner allowed to a spender.",
        "params": {
          "owner": "address The address which owns the funds.",
          "spender": "address The address which will spend the funds."
        },
        "return": "A uint256 specifying the amount of tokens still available for the spender."
      },
      "approve(address,uint256)": {
        "details": "Approve the passed address to spend the specified amount of tokens on behalf of msg.sender. Beware that changing an allowance with this method brings the risk that someone may use both the old and the new allowance by unfortunate transaction ordering. One possible solution to mitigate this race condition is to first reduce the spender's allowance to 0 and set the desired value afterwards: https://github.com/ethereum/EIPs/issues/20#issuecomment-263524729",
        "params": {
          "spender": "The address which will spend the funds.",
          "value": "The amount of tokens to be spent."
        }
      },
      "balanceOf(address)": {
        "details": "Gets the balance of the specified address.",
        "params": {
          "owner": "The address to query the the balance of."
        },
        "return": "An uint256 representing the amount owned by the passed address."
      },
      "decimals()": {
        "return": "the number of decimals of the token."
      },
      "decreaseAllowance(address,uint256)": {
        "details": "Decrease the amount of tokens that an owner allowed to a spender. approve should be called when allowed_[_spender] == 0. To decrement allowed value is better to use this function to avoid 2 calls (and wait until the first transaction is mined) From MonolithDAO Token.sol",
        "params": {
          "spender": "The address which will spend the funds.",
          "subtractedValue": "The amount of tokens to decrease the allowance by."
        }
      },
      "increaseAllowance(address,uint256)": {
        "details": "Increase the amount of tokens that an owner allowed to a spender. approve should be called when allowed_[_spender] == 0. To increment allowed value is better to use this function to avoid 2 calls (and wait until the first transaction is mined) From MonolithDAO Token.sol",
        "params": {
          "addedValue": "The amount of tokens to increase the allowance by.",
          "spender": "The address which will spend the funds."
        }
      },
      "isOwner()": {
        "return": "true if `msg.sender` is the owner of the contract."
      },
      "name()": {
        "return": "the name of the token."
      },
      "owner()": {
        "return": "the address of the owner."
      },
      "renounceOwnership()": {
        "details": "Allows the current owner to relinquish control of the contract."
      },
      "symbol()": {
        "return": "the symbol of the token."
      },
      "totalSupply()": {
        "details": "Total number of tokens in existence"
      },
      "transfer(address,uint256)": {
        "details": "Transfer token for a specified address",
        "params": {
          "to": "The address to transfer to.",
          "value": "The amount to be transferred."
        }
      },
      "transferFrom(address,address,uint256)": {
        "details": "Transfer tokens from one address to another",
        "params": {
          "from": "address The address which you want to send tokens from",
          "to": "address The address which you want to transfer to",
          "value": "uint256 the amount of tokens to be transferred"
        }
      },
      "transferOwnership(address)": {
        "details": "Allows the current owner to transfer control of the contract to a newOwner.",
        "params": {
          "newOwner": "The address to transfer ownership to."
        }
      }
    }
  },
  "userdoc": {
    "methods": {
      "renounceOwnership()": {
        "notice": "Renouncing to ownership will leave the contract without an owner. It will not be possible to call the functions with the `onlyOwner` modifier anymore."
      }
    }
  }
}